:020000040800F2
:100000009007002035020008153900083D3400082B
:10001000113900085D1600082939000800000000A9
:100020000000000000000000000000001D39000872
:10003000151A0008000000001939000821390008CD
:100040004F0200084F0200084F0200084F0200084C
:100050004F0200084F0200084F0200084F0200083C
:100060004F0200084F0200084F0200084F0200082C
:100070004F0200084F0200084F0200084F0200081C
:100080004F0200084F0200084F0200084F0200080C
:100090004F0200084F0200084F0200084F020008FC
:1000A0004F0200084F0200084F0200084F020008EC
:1000B0004F0200084F0200084F0200084F020008DC
:1000C0004F0200084F0200084F0200084F020008CC
:1000D0004F0200084F0200084F0200084F020008BC
:1000E0004F0200084F0200084F02000800F002F81B
:1000F00000F090F80AA090E8000C82448344AAF132
:100100000107DA4501D100F085F8AFF2090EBAE82F
:100110000F0013F0010F18BFFB1A43F0010318473B
:100120005C4D00007C4D0000103A24BF78C878C1B7
:10013000FAD8520724BF30C830C144BF04680C60ED
:10014000704700000023002400250026103A28BF35
:1001500078C1FBD8520728BF30C148BF0B60704739
:100160006E2900F0A382702900F0FB85662904F057
:10017000EB85652904F0E885672904F0E5856129A8
:1001800004F0E48503681B0A28BF41F08001692957
:1001900000F0A480642900F0A180752900F09E8001
:1001A0006F2900F08985782900F0C785E92900F0DA
:1001B0002385E42900F02085F52900F01D85EF292D
:1001C00000F08685F82900F0C6850368DB0928BFA2
:1001D00041F08001632900F0E587732900F0EA8788
:1001E000E32900F0F587F32900F0FA870020704733
:1001F0001FB500F0C1FD04000020002104F044F907
:10020000401C60600020002104F028F9E0601FBD60
:1002100010B510BD01F082F81146FFF7E9FF03F0B9
:10022000DDFB01F0A9F803B4FFF7F2FF03BC01F016
:10023000EDF800000948804709480047FEE7FEE75F
:10024000FEE7FEE7FEE7FEE7FEE7FEE7FEE7FEE786
:1002500004480549054A064B704700002539000847
:10026000ED0000089001002090070020900300207E
:10027000900300207CB51D4616460C00009007D068
:100280004142A14202D32044401E01E04FF0FF3022
:10029000064B7B442A4669460190304600F02DFC0F
:1002A000002C02D0009A002111707CBD950800003E
:1002B0000FB41CB5084B06AA7B446946009005980C
:1002C00000F01BFC04460020694600F029FC204693
:1002D0001CBC5DF814FB0000650800002DE9F0412E
:1002E0000646002410687529314616A510D000F086
:1002F00049F9002802DA404213A507E031688A076D
:1003000001D512A502E0490704D511A5012401E099
:1003100000F041F900210A2206F1240709E0B0FBB0
:10032000F2FCB0FBF2F302FB1C00303078541846AC
:10033000491C0028F3D123462A463046BDE8F04147
:1003400000F05BB9000000002D0000002B00000051
:10035000200000002DE9F05F894604464FF0000AB6
:10036000DFF874B1FB44C0F820A02046E16888475C
:10037000002874D0252806D0D4E901219047206AAE
:10038000401C2062F1E700265F462046E16888476E
:100390002028054607DB312D05D2781910F8200CEE
:1003A00008B10643F1E7B00701D526F00406C4F80A
:1003B0001CA00027C4F818A02A2D09D0284604F054
:1003C0001FF838B304EB8708303DC8F8185019E01F
:1003D00059F8041B204604EB87029161E1688847C5
:1003E000012F054618D1E069002820DA26F0200602
:1003F0001DE0D8F8180000EB800005EB4000303815
:10040000C8F818002046E1688847054603F0F8FF61
:100410000028EED1012F0AD02E2D08D12046E16808
:1004200088477F1C0546022F46F02006C4DBA069E2
:10043000002803DA404246F00106A061F00701D02F
:1004400026F010066C2D0BD0682D09D04C2D39D01C
:100450006A2D35D0742D35D07A2D33D016E038E0A2
:10046000E1682F4620468847B842054609D16C2FDF
:1004700026D04FF48060E168064320468847054651
:1004800004E06C2F1AD04FF4807006430DB3A5F131
:100490004100192802D8203546F400664A4629460C
:1004A000204626604E46FFF75BFE80B101280BD048
:1004B000F61D26F0070000F1080956E74020E4E7A2
:1004C0008020D8E70020D6E706F104094DE728464A
:1004D00052E7206ABDE8F09FE849000010B5431CD0
:1004E00002E010F8011B71B18107FAD14FF001321F
:1004F00002C88C1A8C4314EAC211F9D0C01A0A0639
:1005000003D0C01E10BDC01A10BD0A0401D0801E49
:1005100010BD0902FCD0401E10BD704770477047E7
:1005200010B500F02DFC006810BD10B5044600F0B9
:1005300027FC046010BD70B5044685690068C106DB
:1005400001D5302600E02026C00707D070BDD4E9D1
:10055000012130469047206A401C20626D1EF6D56E
:1005600070BD70B5044685690078C00707D170BDBD
:10057000D4E9012120209047206A401C20626D1E92
:10058000F6D570BD09684A0501D540B27047C90566
:10059000FCD500B2704709684A0501D5C0B2704762
:1005A000C905FCD580B2704770B50C460546012AD6
:1005B00005D02878800600D5EA69002302E00123EF
:1005C00005E05B1C934202D2E05C0028F9D1A869E7
:1005D000E618C01AA861286A184428622846FFF75E
:1005E000AAFF04E0D5E9012114F8010B9047B442B9
:1005F000F8D32846FFF7B5FF70BD2DE9F0470D464B
:1006000099469246044600F124080168880604D5FC
:10061000E06921F01001216000E00120A84201DD25
:10062000471B00E00027A1697A1902EB0900081AAC
:10063000A0612078C00602D42046FFF77CFF002688
:1006400008E0D4E901211AF806009047206A401C0E
:10065000761C20624E45F4DB2078C0060AD5204681
:10066000FFF769FF06E0D4E9012130209047206AB6
:10067000401C2062381EA7F10107F4DC07E0D4E932
:10068000012118F805009047206A401C2062281EAE
:10069000A5F10105F3DC2046FFF763FF2078000693
:1006A00002D50220BDE8F0870120FBE7116802684F
:1006B000006A530501D508700AE0D30501D508800A
:1006C00006E0130603D5C217C1E9000200E0086086
:1006D000012070472DE9FF4F0C461E464FF0FF37B3
:1006E0008BB0D2E90001DDF860800A908A46C1F340
:1006F0000A5505B93D46002108464FF00000BAF101
:10070000000F00F4400005DA00EB80004FF44001D8
:1007100001EA50004FEA9059B9F1010F00DDB946E6
:100720000A9850EA4A000ED044F61050A5F2FF3560
:1007300045432F14B8F1000F1ED07542291E1EDD4F
:10074000C9F100021CE0B8F1010F4FF0000001D028
:10075000302103E0F24305E02154401CB042FBDBB2
:1007600030460022002121540B99C1F80880C1E9CC
:1007700000200FB0BDE8F08FBD1B6D1CDEE74A46C0
:1007800000DA694206A800F02FFD06AB93E80700E7
:1007900003AB83E8070050460A9903F055FA8DE849
:1007A0000700A0F500501F3800900398002D0ADDC7
:1007B00042F21F014A460844002303A903906846F9
:1007C00003F0BEFC09E0A0F500504A461F380023A4
:1007D00003A90390684603F0C8FC8DE807000004F5
:1007E000000C03D04FF0FF30410800E01046B8F194
:1007F000000F03D00022009215461EE0751E05D49E
:1008000000F0C2FA303262556D1EF9D5B3460122AE
:10081000084302D000227F1C04E02078302801D158
:1008200000227F1E002A099784D01DE0112D07DACF
:1008300000F0AAFA303262556D1C50EA0102F5D17F
:10084000084302D00098C8B10EE00021681E05E000
:10085000235C625C63542254401E491C8142F7DBD6
:10086000AB46A81B401E0990002004F80B000B9813
:10087000099AC0F80880C0E9002B7AE711264FF0EA
:10088000000857E72DE9F04F88460446D21D22F0B4
:10089000070191B0D1E90001CDE90A0103F09CFD07
:1008A00002460B98C00F01D02D2007E02068810779
:1008B00001D52B2002E0202101EAC000032A099083
:1008C00001D0072A05DB03464146204600F020FC04
:1008D0000BE12078800601D5E06900E00620B8F140
:1008E000650F814606D0B8F1660F18D0B8F1670FD2
:1008F00070D131E00020B9F1110F009001DB11231C
:1009000001E009F101030AAA01A90CA8FFF7E2FE20
:10091000DDE90C70002609F10105834647E001205E
:100920004B4600904FF000470AAA01A90CA8FFF718
:10093000D1FEDDE90DB00C995D46002610B909F134
:1009400001000D18B9EB050003D4C0F1FF3609F121
:100950000105A5EB09002BE0B9F1010F01DA4FF019
:1009600001090020B9F1110F0090484601DD112363
:1009700000E003460AAA01A90CA8FFF7ABFEDDE9D7
:100980000C704D4600268346207800070AD4AB45FC
:1009900000DA5D4601A8012D04DD411911F8011CA2
:1009A000302907D04F4502DA17F1040F04DA01208D
:1009B00082460FE06D1EEEE7002F02DCED1B3E4489
:1009C00003E0781CA84200DD7D1CB81B00F1010A81
:1009D0004FF000472078000703D4AA4501DB4FF011
:1009E000FF3A0021B7F1004F0DF143088DF8431095
:1009F00024D002202B23002F01DA7F422D230A214D
:100A0000021EA0F1010000DC5FB197FBF1FC97FB37
:100A1000F1F201FB1C7C17460CF1300C08F801CDFB
:100A2000EEE7A8F1010003702188090501D54521F1
:100A300000E06521A0F1010800F8011C09980FA948
:100A4000A1EB0807FF1D00B10120411901EBEA707D
:100A5000A1693844081A401EA0612078C00602D45B
:100A60002046FFF768FD099828B1D4E90121904795
:100A7000206A401C20622078C00622D52046FFF75D
:100A80005AFD1EE0002E04DBB34502DD01A8805DA7
:100A900000E03020D4E901219047206A401C206208
:100AA000761CAAF101005FEA000A0AD100F064F99D
:100AB000C0680168405CD4E901219047206A401C6D
:100AC0002062281EA5F10105DCDC07E0D4E9012144
:100AD00018F8010B9047206A401C2062381EA7F1CD
:100AE0000107F3DC2046FFF73CFD032011B041E68F
:100AF00001694A1C02610878704700B58FB0CDE9E2
:100B000001310021059105497944CDE903101146D1
:100B10006846FFF71FFC0FB000BD0000E5FFFFFFB8
:100B20000A6802F8010B0A607047D1E900239A4273
:100B300002D2531C0B601070704700002DE9FF5F5C
:100B400015468A460446DFF8AC80F8440027D8E909
:100B500000103E46CDE9001010E03AF816106A4643
:100B600002A800F0B3FB411C07D02178890603D509
:100B7000E269391891420DD80744761C2078800626
:100B800002D5E069B84205DDAE42E6DB3AF8160070
:100B90000028E2D1A069C01BA0612046FFF7CBFC72
:100BA000D8E90010CDE90010002017E03AF818103D
:100BB0006A4602A800F08AFBB0F1FF3F81460BD0E5
:100BC00000250DF1080B05E0D4E901211BF8050013
:100BD00090476D1C4D45F7D308F10100B0428046A7
:100BE000E4DB206A384420622046FFF7BAFCBDE807
:100BF000FF9F0000164200002DE9F0418046D21D03
:100C000022F007020025D2E90002F52915A614D02A
:100C1000011E72F1000106DA0023D0EB030063EB42
:100C2000020211A608E0D8F800108B0701D50FA624
:100C300002E0490701D50EA601251146002408F15E
:100C4000240704E000F0A0F830323A55641C50EA62
:100C50000102F7D12B46324621464046BDE8F0411D
:100C6000FFF7CBBC000000002D0000002B000000AF
:100C70002000000030B4002100F1240408E002F05C
:100C80000705D208303542EA4372DB086554491C37
:100C900052EA0305F3D10468002310A2250708D502
:100CA00004F020040C4304D0C46901230CA2641E88
:100CB000C46130BCFFF7A1BC10B5044621461068E2
:100CC000FFF769FC02462046BDE810400023D1E74B
:100CD000D21D22F00701D1E90023CBE7000000007C
:100CE00030000000F0B40D460188090502D5214C02
:100CF0007C4402E01F4C7C440E34002100F12406A9
:100D000008E002F00F071209E75D42EA03721B09CF
:100D10007754491C52EA0307F3D1027800231207E3
:100D200004D5702D06D009B1022311342246F0BC3F
:100D3000FFF763BC01231034F8E770B504460D4695
:100D400021461068FFF727FC024629462046BDE8E9
:100D500070400023C6E7D21D22F00703D3E9002329
:100D6000C0E70368126843F0200303600823C361EF
:100D70000023B7E7784000000048704738000020A3
:100D8000004870471800002030B5B0F10A0271F138
:100D900000034FEA900E4EEA817EB0EB0E0061EB4D
:100DA00091014FEA101E4EEA017E10EB0E0041EB5E
:100DB00011114FEA102E4EEA016E10EB0E0041EBBE
:100DC00011214FEA104E4EEA014E10EB0E0041EB9E
:100DD0001141401841F100014FEAD00040EA417052
:100DE0004FEAD1014FEA810444EA907410EB800588
:100DF00044EB01046D1944EB0404521BA3414FF072
:100E0000000348BF0A3200D530BD401C41F100014B
:100E100030BD00002DE9F04F04460D46D21D22F0F2
:100E2000070089B0D0E900974846394603F0D4FA64
:100E30000246F80F01D02D2307E02068810701D575
:100E40002B2302E0202101EAC0038DF820300BB1F2
:100E5000012000E00020032A824601D0072A04DB9B
:100E60002946204600F054F93FE12078800601D45D
:100E70000D2500E0E569C7F30A560D2D49DA00217A
:100E80004FEA175B08464FF00000002F00F44000C7
:100E900007DA00EB80004FF4400100EBD07001EA6C
:100EA00060008115012901DD4FF0FF3100224FEA7A
:100EB000850CBCF1180F06D31346ACF118004FF0A7
:100EC0008052C24003E04FF4801323FA0CF30CF17C
:100ED0000C0CBCF1200F04D3ACF1200C09FA0CF07F
:100EE00001E007FA0CF000294FF0004801DD18B9C5
:100EF0000FE00ED140450CD319EB02095F4121B937
:100F0000404502D19F4329EA0209BBEB175F00D09D
:100F1000761C2088000502D57B48784402E07A4898
:100F20007844193808AA302302F80A30037C0AF101
:100F30000101002E0AF1020A53546A4602DC4FF006
:100F4000300101E04FF031014FF001088DF8001041
:100F500002D0A6F2FF3603E059EA470100D06B4EFB
:100F6000002D02DC2178090704D54FF002082E215C
:100F70008DF80110C44600210BE0C7F303433F0185
:100F8000C35C491C6D1E02F80830052908F10108F0
:100F900001DA002DF1DC00210CE000EB1973491C93
:100FA0001B786D1E082902F808304FEA091908F16C
:100FB000010801DA002DF0DC21688B0602D516E06D
:100FC000A8F10108E04505DD02EB080313F8013C38
:100FD000302BF5D0B8F1000F09DD02EB080313F850
:100FE000013C2E2B03D1090701D4A8F10108002DE3
:100FF00005DD3E2102F808106D1E08F10108407C55
:10100000002E02F8080008F1010804DA2D207642CB
:1010100002F8080002E02B2002F808000A214FF431
:101020007A70864208F101080BDB96FBF0F330334F
:1010300002F8083096FBF0F308F1010800FB136694
:1010400001E0642E0CDB642096FBF0F3303302F8F1
:10105000083096FBF0F308F1010800FB136601E08D
:101060000A2E06DB96FBF1F0303002F8080008F19A
:10107000010896FBF1F001FB1060303002F8080027
:10108000A16908F1010808EB050202EB0A00081A41
:10109000A0612078C00602D42046FFF74CFA216AEE
:1010A00008AE01EB0A00206204E0D4E9012116F841
:1010B000010B9047BAF1010AF7D22078C00602D599
:1010C0002046FFF738FA6E4609E016F8010B3E2875
:1010D0000FD0D4E901219047206A401C2062B8F16A
:1010E0000108F2D22046FFF73CFA09B00320BDE820
:1010F000F08F206A2844206203E0D4E901213020E7
:1011000090476D1EEBD3F8E7893E000002FCFFFF1D
:101110002DE9F0411F46044603260168072A01F421
:10112000006004DB08B116A505E016A503E008B1D0
:1011300015A500E015A521F010002060A069C01ED3
:10114000A0610FB1401EA0612046FFF7F4F94FB136
:10115000D4E9012138469047206A401C2062C01C17
:10116000206206E0206AFAE7D4E9012115F8010BB4
:101170009047761EF8D22046FFF7F3F9BDE8F081DC
:101180004E414E006E616E00494E4600696E66002B
:1011900010B5436913B1AFF3008001E0FFF704FA23
:1011A000012010BD127800F124010A7000224A705B
:1011B0000122EDE711684FF0FF32E9E710B543690E
:1011C00013B1AFF3008001E0FFF7B8FC012010BDC0
:1011D000128800F1240182840022C2840122EDE7FA
:1011E00011684FF0FF32E9E72DE9F04781461646D6
:1011F0008AB0354878440DC88DE80D0032487844EF
:10120000801C03AC0DC884E80D0041F69B300844F7
:10121000372190FBF1F290FBF1F5A5F1800501FB80
:1012200012041B3C02D56442012000E00020DFF8DC
:1012300098A080460027FA44AAF1BE0A0EE0E00713
:101240000AD03246684607EB470101230AEB8101C9
:1012500002F08BFF8DE8070064107F1C002CEED19C
:10126000194F7F44AE3F19E0E80715D007EB041093
:101270000DF1180A90E80E008AE80E00C068F042EE
:1012800001D1981908903246012306A903A802F05B
:101290006CFF03AB83E807006D10641C002DE3D1E5
:1012A0004FF0010332466946B8F1000F03A802D09F
:1012B00002F046FF01E002F058FFC9E90001C9F859
:1012C00008200AB0BDE8F087403C00002DE9F0415D
:1012D00016460C46054600F047F8036893F80101EE
:1012E000012807D0FF2C12D8185D80B101202C7086
:1012F000BDE8F081D3F807013246214603F2071317
:10130000C7182846BC46BDE8F041002360474FF0AF
:10131000FF30EDE700487047180000207546FFF7E2
:10132000F9FFAE4605006946534620F007008546A2
:1013300018B020B5FEF78CFFBDE820404FF0000646
:101340004FF000074FF000084FF0000BAC46ACE840
:10135000C009ACE8C009ACE8C009ACE8C00921F09C
:1013600007018D467047000010B5FFF705FD001D11
:1013700010BD00BF1531000010B50446AFF300806A
:101380002046BDE81040FEF74EBF00004FF0013C84
:1013900050F8042B51F8043B9A4221D1A2EB0C03E4
:1013A000934313EACC1317D150F8042B51F8043BA4
:1013B0009A4215D1A2EB0C03934313EACC130BD141
:1013C00050F8042B51F8043B9A4209D1A2EB0C03CC
:1013D000934313EACC13DBD04FF00000704700BFFB
:1013E000D01A01BAB1FA81F101F0180122FA01F024
:1013F000CB40DBB2C0B2C01AC1F120012CFA01F31C
:10140000D11A914311EAC311E6D17047014918205E
:10141000ABBEFEE726000200704700002DE9F04F4A
:1014200081B040F20800C2F20000D0E900140020B0
:10143000C4F27A4003F0C6FA214603F0B9FB03F088
:1014400083FB804601F016F8824601F013F8A0EB0A
:101450000A0040F2D00B4045C2F2000B34D240F2F9
:10146000A00540F200090027C2F20005C3F6F87992
:10147000002400BF284600F035FE28464FF47A715C
:1014800000F0FCFC284600F015FC0646284600F05B
:101490008FFE304603F06FF800224B4603F082F8CF
:1014A00003F03AF8DBF814100134401A00FB00771F
:1014B00000F0E0FFA0EB0A004045DBD3384603F024
:1014C00063FB054602E000BF00240025204603F030
:1014D0005BFB0146284603F075FACBF8004003F0A9
:1014E00045FA02F094FF0446DBF810000D4603F0C5
:1014F0003DFA02460B462046294603F053F802F017
:10150000D9FF01B0BDE8F08F80B540F2D00146F6BA
:101510009B4340F68040C2F2000143F2333EC4F2E6
:101520007213C3F64840C4F2530E40F6FF7240F601
:101530009A3CC1E9033040F2A000C1E901E2C2F2E5
:101540000000C1F814C0BDE8804000F065BA00009A
:10155000B0B5044600688168C90709D0816821F0E8
:101560000101816000F086FF21688968C90701D107
:101570000020B0BD054602E08068C007F8D000F04A
:1015800079FF411B20680329F6D38168C907F3D08E
:10159000A06A40F01000A062E06A40F00100E06242
:1015A0000120B0BDB0B582B0044600200190216892
:1015B0008A68D2074FD1886840F00100886040F205
:1015C0001000C2F2000000684DF68361C4F21B31C6
:1015D000A0FB0101880C01900198A0B1019801388D
:1015E0000190019878B1019801380190019850B1AB
:1015F000019801380190019828B1019801380190B3
:1016000001980028EAD100F035FF21688968C907F0
:101610001CD1054603E000BF8068C0071AD100F066
:1016200029FF411B20680329F6D38168C907F3D13C
:10163000A06A40F01000A062E06A40F00100E062A1
:10164000002084F82400012002B0B0BD002002B0C8
:10165000B0BD00BF002002B0B0BD0000FEE700003A
:1016600070B582B00446C07A1826002818BF012041
:101670004FEAC00505F1040008BF10268DF80400EC
:10168000012000F0D5FD301D8DF8060001208DF8F9
:10169000055000F0CDFD206821798DF807604FF4EA
:1016A0007A7601AA0423009600F0A6FF052000F038
:1016B000BFFD02B070BD00002DE9F04182B00446CC
:1016C00008982160A07140F60640C2F61400C4F8E4
:1016D00007000820E07232202271637100F0A8FD3B
:1016E000E07A3825002808BF30252E1D0120382734
:1016F0008DF8046000F09CFD01208DF805508DF8F8
:10170000066000F095FD206821794FF47A7801AAEF
:1017100004238DF80750CDF8008000F06DFFE07ACB
:101720003826002808BF3026351D01208DF80450CA
:1017300000F07EFD01208DF805608DF8065000F068
:1017400077FD2068217901AA04238DF80760CDF880
:10175000008000F051FF052000F06AFDE07A2825A6
:10176000002808BF302707F1040008BF20258DF8A6
:1017700004000120282600F05BFD281D8DF80600DE
:1017800001208DF8057000F053FD2068217901AA31
:1017900004238DF80750CDF8008000F02DFF0520C0
:1017A00000F046FDE07A2825002818BF012008BF78
:1017B0002025C700281D8DF80400012000F038FD09
:1017C000381D8DF8060001208DF8055000F030FD21
:1017D0002068217901AA04238DF80770CDF80080D4
:1017E00000F00AFF052000F023FDE079E27A010114
:1017F00020F00F0501F10807002A14BF0835070182
:10180000281D8DF80400012000F012FD381D8DF810
:10181000060001208DF8055000F00AFD20682179AE
:1018200001AA04238DF80770CDF8008000F0E4FED3
:10183000207AE27A010120F00F0501F10807002A61
:1018400014BF08350701281D8DF80400012000F0A1
:10185000EFFC381D8DF8060001208DF8055000F0D2
:10186000E7FC2068217901AA04238DF80770CDF8E0
:10187000008000F0C1FE607AE27A010120F00F05DD
:1018800001F10807002A14BF08350701281D8DF84B
:101890000400012000F0CCFC381D8DF8060001206A
:1018A0008DF8055000F0C4FC2068217901AA0423BA
:1018B0008DF80770CDF8008000F09EFEA07AE27AE5
:1018C000010120F00F0501F10807002A14BF0835B7
:1018D0000701281D8DF80400012000F0A9FC381D27
:1018E0008DF8060001208DF8055000F0A1FC20685D
:1018F000217901AA04238DF80770CDF8008000F04B
:101900007BFEE07A1827002818BF01204FEAC005A7
:1019100005F1040008BF10278DF80400012000F035
:1019200087FC381D8DF8060001208DF8055000F069
:101930007FFC2068217901AA04238DF80770CDF877
:10194000008000F059FEE07A00280CBF202601201C
:10195000C500281D8DF80400012000F069FC301D31
:101960008DF8060001208DF8055000F061FC20681C
:10197000217901AA04238DF80760CDF8008000F0DA
:101980003BFE02B0BDE8F08170B582B004464079FC
:10199000A379884298BF411E934298BF5A1ED0B285
:1019A000032805D8DFE800F009020608403104E00A
:1019B000002102E0143100E054310A01E37A01F021
:1019C000700002F108056FF07702002B08BF6FF07E
:1019D0007F0202EB000606F1040008BF0D018DF83E
:1019E0000400012000F024FC281D8DF806000120D1
:1019F0008DF8056000F01CFC206821794FF47A76A0
:101A000001AA04238DF80750009600F0F5FD02B0FE
:101A100070BD00007047000070B582B00446002021
:101A2000019094F82400012804D10225284602B030
:101A300070BD00BF012084F824002046FFF788FD18
:101A40002046FFF7AFFD0546002867D1A06A41F2A6
:101A5000021188430230A06240F21000C2F200007E
:101A60000668022000F088FFB6FBF0F0400001900D
:101A70000198A0B1019801380190019878B10198BE
:101A800001380190019850B10198013801900198F6
:101A900028B101980138019001980028EAD1206806
:101AA000816841F00801816000F0E4FC21688A68E7
:101AB00012070DD4886840F00400886000F0DAFC5A
:101AC00021688968490713D401206FF0030121E0E0
:101AD000064602E088680007ECD500F0CBFC801BCE
:101AE00021680B28F6D388680007F3D50EE000BF05
:101AF000064602E080684007E6D500F0BBFC811B8B
:101B000020680B29F6D381684907F3D501251020F9
:101B10006FF01201A26A11400843A062002084F80D
:101B20002400284602B070BD10B581B0002200929A
:101B300090F82420012A03D10221084601B010BDEB
:101B40004B680122062B80F8242017D8D0F800C05B
:101B500003EB83035A1F1F23DCF834E003FA02F47B
:101B60000B682EEA040403FA02F22243CCF8342074
:101B7000092B03EB430219D936E000BFD0F800C0AF
:101B80000C2B03EB83021DD8233A1F23DCF830E033
:101B900003FA02F40B682EEA040403FA02F2224369
:101BA000CCF83020092B03EB43021DD8DCF81030B1
:101BB000072489689440A34391401943CCF810103E
:101BC000002130E0413A1F23DCF82CE003FA02F454
:101BD0000B682EEA040403FA02F22243CCF82C200C
:101BE000092B03EB4302E1D9DCF80CE01E3A072491
:101BF000896894402EEA0404914023F001022143B5
:101C0000102ACCF80C100DD142F20841C4F20101A7
:101C1000A1F1080294450DD0816A41F02001816252
:101C2000012100E00021002280F82420084601B0B4
:101C300010BD00BF0A68120230D40A68102B42F4AB
:101C400000020A602CD140F21001C2F200010968C2
:101C50004DF68362C4F21B32A1FB0212910C01EB20
:101C60008101490000910099E1B100990139009189
:101C70000099C9B10099013900910099B1B1009959
:101C800001390091009999B10099013900910099A9
:101C900000294FF00001E8D1C5E700BF0021C2E7ED
:101CA0000021C0E70021BEE70021BCE70021BAE720
:101CB0000021B8E70068C06C70470000B0B500288C
:101CC00000F0A8800446806A20B121688868C007B7
:101CD0000BD114E00020E06284F82400204600F0DC
:101CE0009BF821688868C00709D0886820F0010047
:101CF000886000F0BFFB21688A68D20726D1A06AFD
:101D0000C0063AD4A06A41F2021290430230A062A7
:101D1000E069D4E9013240EA030C531EB3FA83F3BD
:101D20005D091346B2F5807F18BF2B02207D257B0D
:101D300001284CEA450030D135B3A56A45F02005AD
:101D4000A562E56A45F00105E56226E0054602E088
:101D50008868C007D3D000F08DFB401B21680328A2
:101D6000F6D38868C007F3D0A06A40F01000A062E4
:101D7000E06A40F00100E062A06AA06A40F0100052
:101D8000A0620120B0BD00BFD4F818C04EF6000517
:101D9000CFF6FF7505EB4C352B434D68B2F5807FD0
:101DA00025F4694543EA05034B608B684FF2FD75E6
:101DB000CFF6E17503EA050343EA00038B6001D027
:101DC000012A07D122690023CFF6F07303EB0252F8
:101DD00001E000BF0022CB6A23F470031A43CA62F9
:101DE000896840F6FE62CFF61F721140814207D12A
:101DF0000020E062A16A012262F30101A162B0BD8C
:101E0000A06A40F0100020F00200A062E06A40F0FA
:101E10000100E0620120B0BD80B586B0014640F609
:101E20000000C4F20100096800F5E05291424FF051
:101E30000001CDE9041101D006B080BD41F21801C6
:101E4000C4F202010A6842F400720A600A6802F4ED
:101E500000720192019A0A6842F004020A6009685D
:101E600001F00401019101990121029103210391E3
:101E700002A900F0F1F906B080BD0000F0B581B014
:101E800000270D460446009700F0F4FA21688A689E
:101E9000D20543D406464868C00503D4C86A10F486
:101EA000700F45D040F21000C2F200000768022017
:101EB00000F062FD216844F624130A69B7FBF0F0D4
:101EC000C2F292431A4206D1CA6844F62413C0F201
:101ED00092031A425ED00A6942F29243C1F2492348
:101EE0001A4207D1CA6842F29243C0F249031A4229
:101EF00000F0C0800A6949F24923C0F224031A4263
:101F00004FF0FC0257D1CF681F4208BF5422009BFC
:101F100002FB00F7BB4253D3C3E000BFA06A40F00E
:101F20002000A06284F82470012001B0F0BD00BF41
:101F30000868800700F1B580681C00F0A880FDB932
:101F40000868800772D50868800700F1AA800868D1
:101F500080076BD50868800700F1A38008688007B8
:101F600064D50868800700F19C80086880075DD50B
:101F700008688007E4D594E00868800700F1918044
:101F800000F078FA801B2168A842F5D9086880071C
:101F9000F2D44BE00A6942F29243C1F249231A4259
:101FA0004FF0290207D1CB6842F29247C0F24907AD
:101FB0003B4208BF1422009B02FB00F7BB4270D2D9
:101FC000681C4FD055BB0098B8422FD30098013001
:101FD00000900098B84264D20098B84226D3009886
:101FE000013000900098B8425BD20098B8421DD3EF
:101FF0000098013000900098B84252D20098B84240
:1020000014D30098013000900098B842DBD348E028
:102010000098013000900098B84233D200F02AFABC
:10202000801BA842F4D90098B842F1D2A06A40F0CF
:102030000400A062002084F82400032001B0F0BD59
:102040000098013000900098B8422AD200980130E0
:1020500000900098B84224D2009801300090009877
:10206000B8421ED20098013000900098B842E7D3E1
:1020700017E000BF5422009B02FB00F7BB429FD336
:102080000FE000BF21680CE00868800709D40868E9
:10209000800706D4086880075CBF08685FEA807024
:1020A000F2D56FF012000860A06A40F40070A062E0
:1020B000886800F46020B0F5602F01D1207B18B152
:1020C000002001B0F0BD00BFA06A20F48070A062C3
:1020D000A06AC004F4D4A06A40F00100A06200200D
:1020E00001B0F0BD10B5044690F82400012804BFEB
:1020F000022010BD012084F824002046FFF752FA88
:1021000020B1002184F8241010BD00BF42F2044C1D
:102110002068A16AC4F2010C40F2013291430CF52F
:102120007F7201F580719042A16233D0A16A21F4DF
:102130008011A1624168490504D5A16A012363F3B6
:102140000D31A162A16A0023C9044FF0000144BF10
:10215000E16A21F00601E1626FF0020184F82430A7
:102160000160816801F46021B1F5602F06D19042D1
:102170000AD1DCF8001011F4702F05D0816841F409
:1021800080118160002010BD816841F4A001816050
:10219000002010BDDCF8001011F4702FC6D0A16A29
:1021A00041F48011A162DCF800104905C5D4C9E7EB
:1021B000B0B5044690F82400012804BF0220B0BD49
:1021C0000121206884F824108168C90709D081683A
:1021D00021F00101816000F04DF921688968C9078B
:1021E0000ED1214651F8280F41F2011220EA0202D5
:1021F000002042F001020A60002184F82410B0BDE2
:10220000054602E08068C007EBD000F033F9411BBF
:1022100020680329F6D38168C907F3D0A06A214654
:1022200040F01000A06251F82C2F0120E1E70000DF
:10223000B0B5044600F01EF9054640F20000C2F2B7
:1022400000000078611C18BF044400BF00F012F9C0
:10225000401BA042FAD3B0BD2DE9F04F82B00E680A
:10226000002E00F0038141F20042C4F20102042377
:1022700040F2004E904208BF03234FF6FF7CC4F2A9
:10228000010E009300240123C1F2100C4FF0000A4C
:102290004FF0000949E000BF012704F00C030F22B2
:1022A0009A402BEA020207FA03F34FEA9A051A430F
:1022B00046F82520D1F804B040F20C455FEACB2265
:1022C000DEF8082054BF22EA080242EA0802C4F2FB
:1022D0000105CEF808202A685FEA8B2354BF22EA62
:1022E000080242EA08022A605FEA8B33DEF8042023
:1022F00054BF22EA080242EA08025FEACB33CEF872
:102300000420DEF800204FF0010354BF22EA080247
:1023100042EA0802CEF800200E680AF1010A36FAF5
:102320000AF204F1040400F0A18003FA0AF816EAA4
:10233000080FF1D04E68664512DC122E56D8DFE841
:1023400006F0350B45495555555555555555555577
:102350005555554D510000BFD1F80C9046E000BFD7
:102360004FF6FF72C1F2210296420FDC0022C1F249
:10237000110296421AD00022C1F21202964215D0E2
:102380000022C1F22102964210D02FE00022C1F2B9
:10239000220296420AD00022C1F23102964205D0B2
:1023A0000022C1F23202964220D100BF8A684AB1AF
:1023B000012A14BFC0F81480C0F810804FF008093B
:1023C00014E000BF4FF0040910E000BFCA6802F13A
:1023D00008090BE04FF0000908E000BFCA6802F1ED
:1023E000040903E0CA6802F10C0900BF2246064650
:1023F000BAF1080F24BF203A043637680F259540FC
:1024000027EA050509FA02F22A433260CA79D206A0
:102410007FF582AF41F21803C4F202031A68AEF5E9
:102420007E7642F001021A601A6802F001020192FF
:10243000019A2AF0030256F802B040F60002C4F2F4
:102440000102904210D040F60042C4F201029042D4
:102450003FF422AF41F20002C4F20102009F904219
:1024600008BF022719E700BF002716E702B0BDE842
:10247000F08F000040F28810C2F200000068704740
:1024800070B5B8B3044690F83D0028B9002084F830
:102490003C00204600F09AF9242084F83D00206892
:1024A000016821F001010160016841F4004101600F
:1024B000016821F40041016000F03CFC48F28041D9
:1024C000C0F21E0140F60013D4F804E088424FF039
:1024D0000001C0F23D0348F2A16C4FF0000238BF8A
:1024E00001219842C0F2010C38BF0122E64538BFF5
:1024F0000A460AB1012070BD4DF68361C4F21B315A
:10250000A0FB01122168950C4B684FF4967623F0DE
:102510003F0343EA9243754344F6D3564B60C1F2FE
:1025200062060B6AA5FB0656B50923F03F03E64594
:1025300038BF950C6A1C1A430A62CA6948F2A06641
:102540004CF6FF73C0F20106B64522EA03020BD82F
:1025500001384FEA4E03B0FBF3F001306FF31F3048
:10256000042898BF04201EE0A368013863B1192332
:102570000EFB03F3B0FBF3F001306FF31F3078B1C3
:1025800000F5804008E000BF0EEB4E03B0FBF3F017
:1025900001306FF31F3028B100F5004003E000BFA9
:1025A000012000E001201043C8610868D4E9072336
:1025B00020F0C000104318430860886848F2FF32DA
:1025C00004F10C0690434CCE18431043A569886073
:1025D000C86820F0FF0030432843C860086840F016
:1025E0000100086000202021206484F83D10206351
:1025F00084F83E0070BD00002DE9F04383B01E4614
:10260000174689460446FFF735FF94F83D10202908
:1026100020D10546206800BF8169890716D5FFF7DC
:1026200029FF411B20681A29F6D381698907F3D550
:1026300000202021206384F83D1084F83E00216CA6
:1026400041F02001216484F83C0003E094F83C1040
:10265000012903D1022003B0BDE8F083012184F8F1
:102660003C100168C90703D1016841F00101016014
:10267000016840F2020821F400610160212184F820
:102680003D10102184F83E100021216467626685A8
:10269000618DC0F201082185A8F10211E162E16AB1
:1026A0000A9E11F5803F18BF01291DD1016841F430
:1026B0008071016020464FF00111002233460095E1
:1026C00000F01EFF50B120680068C00544BF4FF401
:1026D00000702064012003B0BDE8F0832069B0F5EC
:1026E000804F07D1FE2015E00829DFD0216B122989
:1026F000DCD0DFE7062000EAD9102168F03008615D
:1027000008F10601204632462B4600F0E3FF002880
:10271000E0D1FF20216800EA090008612046414617
:1027200032462B4600F0D6FF0028D3D1002002907D
:1027300020684169029180690290029806E000BF1A
:10274000204631462A4600F07BFE18BB208D68B338
:10275000204631462A4601F02DF8D8B9606A216832
:10276000024612F8013B0B616262628D013A62859A
:10277000228D531E23854F697F07E1D51B04DFD0CF
:10278000437802300B616062608D01386085901E75
:102790002085D5E7206C04289CD12068016841F48D
:1027A00000710160012003B0BDE8F083206801687A
:1027B00041F400710160202084F83D00002084F87D
:1027C0003E0084F83C0003B0BDE8F08310B586B04D
:1027D00045F200410068C4F20001002288420492E0
:1027E00002D006B010BD00BF41F21804C4F20204CA
:1027F000206840F008002060206800F00800019088
:102800000198C0200290122003900320059001F54A
:10281000384002A9FFF720FD606840F400106060B6
:10282000606800F400100190019806B010BD00002F
:1028300040F2000040F28811C2F20000C2F2000132
:1028400000780A68104408607047000080B542F2C2
:102850000000C4F20200016841F010010160032091
:1028600000F07AF80F2000F005F800F027F80020BB
:1028700080BD000070B540F20006C2F2000640F2D2
:1028800010013278C2F200014FF47A730968B3FB89
:10289000F2F20446B1FBF2F1084600F04DFC0F2CB9
:1028A0004FF0010508D838B94FF0FF30214600221B
:1028B000002500F025F87460284670BD82B041F212
:1028C0001800C4F202000168022241F00101016017
:1028D000016801F0010101910199416841F08051C5
:1028E0004160406800F08050009000980420C4F2DD
:1028F0000100016862F31A61016002B070470000D4
:1029000010B54EF60C5CCEF2000CDCF80030C3F3D0
:10291000022E8EF00704042C28BF0424BEF103030A
:102920004FF0FF3E0EFA04F438BF0023A143994054
:102930000EFA03F39A43114300F00F0200F16043D3
:102940000901043A03F564436244002848BF02F1D8
:102950000C03197010BD00004EF60C51CEF20001B0
:102960000A684FF6FF031A4060F30A2242F08060C3
:1029700040F0FD700860704780B5012818D002282B
:1029800036D0102832D141F20401C4F202010A68A3
:1029900051F8040CC00129D5C2F383402DA3185C63
:1029A000D2033DD440F60012C0F23D02504343E052
:1029B00041F20400C4F20200C16940F202320A404E
:1029C000B2F5817F04BF4FF4004080BD01F4407137
:1029D000B1F5407F1CD0B1F5007F07D1006A49F600
:1029E0004041800701EAE07080BD00BF002080BD4B
:1029F00000F0B4F941F20401C4F2020109680222B4
:102A0000C1F3813102EB4101B0FBF1F080BD00BFA9
:102A100050F8040C4FF22441800301EAE07080BDBD
:102A20000A6810A3C2F340429A5C41F20023C0F24C
:102A30007A03B3FBF2F250430968490248BF80BDF4
:102A40004AF6AB214000CAF6AA21A0FB01014808C2
:102A500080BD00BF02030405060708090A0B0C0D20
:102A60000E0F1010010200002DE9F04182B0044663
:102A7000007841F21C06C007C4F202064AD0306852
:102A800010F0805808D1306840F0805030603068D5
:102A900000F080500190019847F20007C4F200074F
:102AA0003868C00512D4386840F480703860FFF789
:102AB000E1FC05463868C00508D4FFF7DBFC401B85
:102AC0006428F7D9032002B0BDE8F081706810F4E3
:102AD000407012D0616801F4407188420DD0706876
:102AE00040F24042C4F24222012320F440711360BC
:102AF0000023C007136071602AD17068616820F4F8
:102B000040700843B8F1000F706003D1306820F0C6
:102B1000805030602068810707D556F8181CA268DD
:102B200021F44041114346F8181CC00604D400208B
:102B300002B0BDE8F08100BF56F8180CE16820F43F
:102B40008000084346F8180C002002B0BDE8F08170
:102B5000FFF790FC054641F2883700BF7068800798
:102B6000CBD4FFF787FC401BB8424FF00300F5D9E8
:102B7000EBE700002DE9F04381B0002800F08580EC
:102B800042F20008C4F202080446D8F800000D46DC
:102B900000F0070088420CD2D8F8000020F00700AF
:102BA0002843C8F80000D8F8000000F00700A84249
:102BB0006BD1206841F204098107C4F2020917D5DC
:102BC000410705D5D9F8001041F4E061C9F80010BB
:102BD000010705D5D9F8001041F46051C9F800107B
:102BE000D9F80010A26821F0F0011143C9F80010D3
:102BF000C00741D1D8F8000000F00700A8420CD966
:102C0000D8F8000020F007002843C8F80000D8F8E2
:102C1000000000F00700A84237D12068410707D51F
:102C2000D9F80010E26821F4E0611143C9F80010FE
:102C3000000708D5D9F80000216920F4605040EA67
:102C4000C100C9F80000D9F8002002F00C000828E3
:102C500041F20020C0F27A0050D144F66A63C2F318
:102C60008341C0F60003595CD2033BD440F6001008
:102C7000C0F23D00484341E0606802280AD00128C4
:102C80002AD159F8041C890308D4012001B0BDE8F9
:102C9000F08300BF59F8041C8901F6D5D9F800105B
:102CA00021F003010843C9F80000FFF7E3FB0646E3
:102CB00041F28837D9F80000616800F00C00B0EBF1
:102CC000810F97D0FFF7D6FB801BB842F2D90320C3
:102CD00001B0BDE8F08300BF59F8041C8907D4D5C2
:102CE000DCE700BFD9F8002044F66863C2F3404235
:102CF000C0F600039A5C4843B0FBF2F0D9F800102C
:102D000044F65062C1F30311C0F60002515C40F278
:102D1000100220FA01F140F20400C2F20000006843
:102D2000C2F200021160FFF7A5FD002001B0BDE86E
:102D3000F083000040F2100041F20401C2F20000F2
:102D4000C4F202010068096844F66062C1F302211E
:102D5000C0F60002515CC8407047000040F210000D
:102D600041F20401C2F20000C4F2020100680968E5
:102D700044F66062C1F3C221C0F60002515CC84053
:102D8000704700002DE9F04182B0002868D0044669
:102D9000007841F20006C007C4F2020625D0706830
:102DA00000F00C0004281BD0706800F00C0008280C
:102DB00002D17068C00313D46068002800F06881F5
:102DC000B0F5A02F00F07C81B0F5803F00F07C8151
:102DD000306820F480303060306820F4802076E164
:102DE0003068800301D56068D0B32078800718D59B
:102DF000706810F00C0F07D0706800F00C00082805
:102E00006ED17068C0036BD43068800702D520692A
:102E1000012825D13068616920F0F80040EAC1003E
:102E20003060207800071FD42078400732D4E5694D
:102E300095B1706800F00C00082840F08F80012DDB
:102E40000ED07068216A00F480328A4208D1616A2B
:102E500000F47010884203D1002002B0BDE8F08178
:102E6000012002B0BDE8F081A069002862D00020F6
:102E7000C4F242200121C0F88014FFF7FBFA054696
:102E8000706A800700F18C80FFF7F4FA401B02287B
:102E9000F6D92AE1F06910F0805808D1F06940F0C5
:102EA0008050F061F06900F080500090009847F287
:102EB0000007C4F200073868C00529D4386840F418
:102EC00080703860FFF7D6FA054600BF3868C00545
:102ED0001ED4FFF7CFFA401B6428F7D905E100BFE5
:102EE0002069002840F20000C4F2422000F08280F5
:102EF00001210160FFF7BEFA054600BF3068800778
:102F00003FF588AFFFF7B6FA401B0228F6D9ECE090
:102F1000E068002800F08080052800F097800128F4
:102F200000F09880306A20F001003062306A20F0B2
:102F3000040092E00020C4F242200021C0F8801476
:102F4000FFF798FA054600BF706A80077FF56CAFFF
:102F5000FFF790FA401B0228F6D9C6E00027C4F21A
:102F6000422700203866FFF785FA022D05460BD16F
:102F70003068800140F1BE80FFF77CFA401B0228D8
:102F80004FF00300F4D968E7306880017FF564AF43
:102F9000FFF770FA401B02284FF00300F4D95CE7FA
:102FA00040F21000C2F20000006844F6D351C1F2B2
:102FB0006201A0FB0101480A019000BF00BF019817
:102FC000411E002801913FF42FAF00BF0198411E20
:102FD000002801913FF428AF00BF0198411E00284E
:102FE00001913FF421AF00BF0198411E00280191DB
:102FF000E4D119E700210160FFF73CFA054600BF64
:10300000306880077FF50DAFFFF734FA401B0228C8
:103010004FF00300F4D920E7306A20F0010030625D
:10302000306A20F004003062FFF724FA054641F2CE
:10303000883700BF306A800720D5FFF71BFA401B96
:10304000B8424FF00300F5D907E700BF306A40F0FF
:1030500004003062306A40F001003062FFF70AFA83
:10306000054641F2883700BF306A800706D4FFF773
:1030700001FA401BB842F7D937E000BFB8F1000FA2
:103080007FF4D5AEF06920F08050F061CFE600BF4C
:10309000306820F480303060306820F48020306068
:1030A000FFF7E8F9054600BF306880037FF59DAE65
:1030B000FFF7E0F9401B64284FF00300F4D9CCE699
:1030C000306840F480203060306840F480303060F8
:1030D000FFF7D0F9054600BF306880033FF585AEA5
:1030E000FFF7C8F9401B6428F6D9032002B0BDE8F9
:1030F000F08100BF206AB0F5803F05D17168A268F9
:1031000021F40031114371607168626A21F4741115
:1031100011430843706001203866FFF7ABF904469D
:10312000306880013FF598AEFFF7A4F9001B022834
:103130004FF00300F4D990E6411E0020B0EB116F70
:103140001CBF012070474EF21002CEF20002516007
:103150004EF62351CEF20001F0230B700721906050
:1031600011607047002804BF0120704710B5044665
:1031700090F8410028B9002084F84000204600F073
:1031800063F8242084F841002068D4E90212C3685F
:1031900023F40053C360036923F440531A430261CC
:1031A000D4E904231143C268194341F20C639A43E2
:1031B0001143C1604169A26921F44071114343F692
:1031C0000002C4F201029042416103D0FFF7B2FD58
:1031D00002E000BFFFF7C2FD626819214843910079
:1031E000B0FBF1F048F21F51C5F2EB11A0FB012337
:1031F0005A094FF69C73C0F6FF7302FB030032239B
:1032000003EB0010A0FB0101F02303EA5113206837
:1032100003EB0212C1F3431111448160016921F4EF
:1032200090410161416921F02A014161C16841F485
:103230000051C16000202021606484F8411084F8AE
:103240004210606310BD000070B586B040F6000407
:10325000C4F20104006804F5405100268842049637
:1032600002D006B070BD00BF41F21800C4F20200E7
:10327000016802AD41F480410160016801F48041C0
:1032800001910199016841F004010160006829463B
:1032900000F00400019001984FF4007002900220A9
:1032A0000390032005902046FEF7D6FF4FF4806080
:1032B000CDE90206204629460496FEF7CDFF06B06A
:1032C00070BD00002DE9F041044690F8410020282F
:1032D0001CBF0220BDE8F0810D4600294FF001001F
:1032E00000F0AA801646002A08BFBDE8F081002041
:1032F00060642120984684F84100FFF7BBF8A6845B
:10330000E684A1680646B1F5805F02D120690028F5
:1033100062D02F460025E08C002861D018F1010012
:1033200018D0B8F1000F37D1216808E017F8010B69
:103330004860E08C0138E084E08C002851D00868B7
:10334000000673D5002FF1D135F8020B00276FF37B
:103350005F20EDE7216802E00868000609D40868EC
:10336000000606D4086800065CBF08685FEA0060D3
:10337000F2D51FB117F8010B05E000BF35F8020BBD
:1033800000276FF35F204860E08C0138E084E08C18
:103390000028E4D125E000BF216800BF08680006CE
:1033A00008D4FFF767F8801B404541D82168C868FA
:1033B000F4E700BF17B117F8010B04E035F8020B72
:1033C00000276FF35F204860E08C0138E084E08CD8
:1033D0000028E3D105E000BF0027E08C00289DD144
:1033E0002168086840061FD4B8F1000F1ED018F1FC
:1033F00001000FD10868400616D40868400613D4AF
:103400000868400610D4086840064FF00000F1D567
:103410000FE000BFFFF72EF8801B404508D820685A
:10342000C16800684006F5D5002002E0FFF722F8E9
:103430000320202184F84110BDE8F081FEE7000060
:1034400070B50368044653F8140F400711D40E46B4
:10345000481C29D086BB00BF1868400527D4FFF759
:1034600009F8236853F8140F400739D51868400746
:10347000F2D5002070BD00BF18684007F9D4186865
:10348000400514D418684007F3D4186840050ED4DA
:1034900018684007EDD41868400508D4186840073C
:1034A0004FF0000048BF70BD18684005E4D56FF4C8
:1034B00080601860042014E0154603E053F8140FF0
:1034C0004007D6D418684005F1D4FEF7D3FF401B5F
:1034D0002368B042F2D958694007EFD4202000E0B9
:1034E000202000212022216384F83D2084F83E1012
:1034F000226C10432064012084F83C1070BD000051
:103500002DE9F041054600681E46144601F47F028D
:1035100001338FB242D0DDF81880B2F5803F40F021
:10352000878040693840C01BB0FA80F04009A04253
:1035300040F0C8804EB924E040693840C01BB0FA62
:1035400080F04009A04240F0BD80FEF793FFA0EB61
:1035500008012868B142EFD941693940C91BB1FA65
:1035600081F14909A142E7D19BE000BF40693840A1
:10357000C01BB0FA80F04009A0424FF0000040F0BC
:10358000A680FEF777FF286841693940C91BB1FA68
:1035900081F14909A142E9D183E000BFB2F5803F42
:1035A00024D100BF41693940C91BB1FA81F14909F1
:1035B000A14240F0878041693940C91BB1FA81F1CD
:1035C0004909A14240F07E8041693940C91BB1FAE6
:1035D00081F14909A14275D141693940C91BB1FA4C
:1035E00081F14909A142DDD06CE000BF8169394019
:1035F000C91BB1FA81F14909A14263D181693940FE
:10360000C91BB1FA81F14909A1425BD181693940F5
:10361000C91BB1FA81F14909A14253D181693940ED
:10362000C91BB1FA81F14909A142DFD04AE000BFCC
:1036300080693840C01BB0FA80F04009A04241D1F7
:1036400046B923E080693840C01BB0FA80F04009D9
:10365000A0423BD1FEF70EFFA0EB08012868B14263
:10366000F0D981693940C91BB1FA81F14909A142F8
:10367000E8D116E080693840C01BB0FA80F04009FC
:10368000A0424FF0000018BFBDE8F081FEF7F2FE47
:10369000286881693940C91BB1FA81F14909A14201
:1036A000E8D100202021286385F83D1085F83E00F0
:1036B000296C41F02001296485F83C000120BDE817
:1036C000F08100BF0020BDE8F08100BF0020BDE810
:1036D000F0810000F0B581B0044600681D464369E2
:1036E0008FB203EA0701B94202D1002001B0F0BD58
:1036F00041691646013201F4806125D0002940D18C
:10370000CEB100BFFEF7B6FE411B2068B14203D91F
:1037100041693940B9424BD141693940B942E4D09D
:1037200041694905EED52CE041693940B942DCD008
:103730004169490525D4FEF79DFE2068416939405D
:10374000B942F1D0202024E0D9B941693940B942C9
:10375000CBD04169490514D441693940B942C4D03C
:10376000416949050DD441693940B942BDD041692B
:10377000490506D441693940B942B6D04169490585
:10378000E3D5016841F4007101606FF4806141612B
:10379000042000212022216384F83D2084F83E107B
:1037A000226C1043206484F83C10012001B0F0BD6D
:1037B0002020EEE770B50368044653F8140F0006A6
:1037C00011D40E46481C29D086BB00BF186840059E
:1037D00027D4FEF74FFE236853F8140F000639D59F
:1037E00018680006F2D5002070BD00BF18680006FA
:1037F000F9D41868400514D418680006F3D4186882
:1038000040050ED418680006EDD41868400508D4A9
:10381000186800064FF0000048BF70BD18684005EA
:10382000E4D56FF480601860042014E0154603E0CE
:1038300053F8140F0006D6D418684005F1D4FEF7EB
:1038400019FE401B2368B042F2D958690006EFD434
:10385000202000E0202000212022216384F83D2048
:1038600084F83E10226C10432064012084F83C1040
:1038700070BD000082B02DE9F04F89B00E460DF109
:103880000F0A8346CDE9122312AB5046112132466E
:103890000293FCF7EFFC9DF80F00A0B300274FF454
:1038A0007A780DF1200900BF1AF807009BF80B3059
:1038B000020120F00F0102F10806002B14BF0831AD
:1038C0000601481D8DF8200001204D1C741CFEF7D8
:1038D000AFFC701D8DF8220001208DF82150FEF7FD
:1038E000A7FCDBF800009BF804104A4604238DF87F
:1038F0002340CDF80080FEF77FFE50460137FCF7ED
:10390000EDFD8742D0D309B0BDE8F04F02B070475B
:10391000FEE70000FEE7000070470000704700006F
:10392000FEF786BF70470000FEE700002DE9F0417A
:1039300040F2A00440F2000800276425C2F200040F
:10394000C3F6F8782046FEF7CDFB20464FF47A7197
:10395000FEF794FA2046FEF7ADF906462046FEF73C
:1039600027FC304600F007FE0022434600F01AFE16
:1039700000F0D2FD013D0744E4D148F21F50C5F2EA
:10398000EB1087FB0001481100EBD17040F2D00131
:10399000C2F200014861BDE8F0810000B0B540F21C
:1039A000A004C2F200042046FEF79CFB20464FF420
:1039B0007A71FEF763FA2046FEF77CF90546204649
:1039C000FEF7F6FB284600F0D6FD0023C3F6F87399
:1039D000002200F0E7FD00F09FFDB0BD94B0FEF7BF
:1039E00035FF00240120CDE90F44CDE90D440E90B0
:1039F00010200F904FF46010022513900AA8CDE913
:103A00000B440494CDE902440A95CDE91154FFF723
:103A1000B9F928B1EFF3108072B600BFFEE700BF1E
:103A20000F20CDE905054FF48060CDE9080405A815
:103A300002210794FFF79EF820B1EFF3108072B6D1
:103A4000FEE700BF022001904FF40040039001A860
:103A5000FFF70AF820B1EFF3108072B6FEE700BF5F
:103A600041F21800C4F20200016845F2004441F03E
:103A700004010160016840F2780601F004010A9136
:103A80000A990168C4F2000441F00801016000686D
:103A9000C2F2000600F008000A900A9804F55041AE
:103AA000304640F8281F00254FF460210127057398
:103AB0000575C161C0E901550761FEF7FFF828B13E
:103AC000EFF3108072B600BFFEE700BF06F12800DA
:103AD0000AA9CDE90A570C95FEF726F820B1EFF3B5
:103AE000108072B6FEE700BF40F2EC0048F2A06121
:103AF000C2F20000C0F2010100254FF48042C0E98B
:103B00000041C0E90255C0E90425C0E90655056237
:103B1000FEF7B6FC20B1EFF3108072B6FEE700BFEF
:103B200040F2401004F56441C2F200000C234FF44F
:103B3000165280E82600C0E90355C0E90535C56185
:103B4000FFF710FB20B1EFF3108072B6FEE700BF65
:103B5000FDF7DAFC06F11C0440F2EC010227C2F288
:103B6000000120464E2210230097FDF7A5FDFFF728
:103B7000DDFE40F6B830FEF75BFBFFF7D7FE48F2FC
:103B8000000940F240170FF29C08C4F26B090FF2D3
:103B9000A40A06F110050FF2A80BC2F2000700BF3D
:103BA000FFF7FCFE3060FDF739FC43F23330C3F61B
:103BB000D3704FF03331C6E902102046FDF750FDB7
:103BC000204600210022FDF7DFFED6E90223204631
:103BD0004146FFF74FFE204600210122FDF7D4FEAB
:103BE000D6E9020100224B4600F0DCFC02460B46FF
:103BF00020465146FFF73EFED6E9022328465946A5
:103C0000FCF756FB2846FCF769FC82B23846294689
:103C10004FF0FF33FFF756FB4FF4FA60FEF708FB57
:103C2000BEE700BF43757272656E743A20252E326E
:103C300066000000506F7765723A20252E326600CC
:103C4000252E3266000000005FEA400C08BF91F0AC
:103C5000000F4FEA8C234FEAC12243EA51514FEA49
:103C60001C5018BF00F5F0404FEA300018BF41F07B
:103C700000415FEA6C5C00F02980BCF1FF3F08BFA7
:103C800040F080407047130C06BF12044FF0100C38
:103C90004FF0000C130E04BF12020CF1080C130FAE
:103CA00004BF12010CF1040C930F04BF92000CF13D
:103CB000020CD30F04BF52000CF1010C11464FF05F
:103CC0000002A0F11F00A0EB0C00704711F0004FA4
:103CD00008BF704731F000413FF4D5AF0B0C06BF71
:103CE00009044FF0100C4FF0000C0B0E04BF09023A
:103CF0000CF1080C0B0F04BF09010CF1040C8B0F25
:103D000004BF89000CF1020CCB0F04BF49000CF179
:103D1000010CCCF1200322FA03F341EA030102FA79
:103D20000CF2A0EB0C0000F10100704723F07F477C
:103D300020F07F4C80EA030000F00040ACEB07036A
:103D400003F57C5303F1FF032DE9804909B44FEAE1
:103D5000144324EA03484FEA154B25EA0B4E0FF2B1
:103D6000042606EB13273E7803FB0667C7F500071A
:103D700007FB06F64FEAD64606F102064FEA54372D
:103D800007FB066CCCF1005C4FEA1C472CEA074CA1
:103D90000CFB06F507FB06F404EB15464FEA9616F6
:103DA00049085FEA320234BF00204FF000404FEA7A
:103DB000D13706FB07FC4FEA1C4C0CFB0BF7D21B60
:103DC00003FB0CF761EB07010CFB0EF7B0EB0740B0
:103DD00072EB17420CFB08F734BFA2EB0742B2EBC1
:103DE000074261EB17414FEA0C444FEA910706FB8B
:103DF00007FC4FEA1C4C0CFB0BF7B0EBC74072EB17
:103E0000573203FB0CF734BFA2EBC742B2EBC742F9
:103E100061EB57310CFB0EF7B0EBC70072EB57723A
:103E20000CFB08F734BFA2EBC702B2EBC70261EB91
:103E300057714FEA816141EA92114FEA826242EA88
:103E400090124FEA806004EBCC04039F4FEAD13715
:103E500006FB07FC4FEA1C4C0CFB0BF7D21B03FBC9
:103E60000CF761EB07010CFB0EF7B0EB074072EBB0
:103E700017420CFB08F734BFA2EB0742B2EB074234
:103E800061EB17414FEA8C5504EB9C244FEA9107F4
:103E900006FB07FC4FEA1C4C0CFB0BF7B0EBC740D2
:103EA00072EB573203FB0CF734BFA2EBC742B2EB05
:103EB000C74261EB57310CFB0EF7B0EBC70072EB5A
:103EC00057720CFB08F734BFA2EBC702B2EBC70274
:103ED00061EB57714FEA816141EA92114FEA8262C8
:103EE00042EA90124FEA806015EB4C2544F1000441
:103EF0004FEAD13706FB07FC4FEA1C4C0CFB0BF7D3
:103F0000D21B03FB0CF761EB07010CFB0EF7B0EBC8
:103F1000074072EB17420CFB08F734BFA2EB0742D5
:103F2000B2EB074261EB17414FEA813141EA92411E
:103F30004FEA823242EA90424FEA80304FEA0C76F2
:103F400015EB1C1544F1000448EA03434EEA0B4804
:103F50004FF0000EB2EB080C71EB030724BF624672
:103F600039464EEB0E0E4FF0000B001852414941FE
:103F70004BEB0B0BB2EB080C71EB03077BF1000B67
:103F800024BF624639464EEB0E0E4FF0000B001870
:103F9000524149414BEB0B0BB2EB080C71EB0307A1
:103FA0007BF1000B24BF624639464EEB0E0E51EA00
:103FB000020718BF46F0010616EB0E7655F1000217
:103FC00054F1000103D5BDE88901BDE80088BDE8D2
:103FD0008901BDE80048B619524141EB0101A3F146
:103FE0000103704780807F7E7D7C7B7A797877764D
:103FF00076757473727171706F6E6E6D6C6C6B6AC6
:104000006A69686867666665646463636261616063
:10401000605F5F5E5E5D5D5C5C5B5B5A5A595958E0
:10402000585757565655555554545353525252514A
:10403000515050504F4F4F4E4E4D4D4D4C4C4C4BA0
:104040004B4B4A4A4A4949494848484747474746E7
:104050004646454545444444444343434342424223
:10406000424141419C46002B30D477002BD04FEA8F
:1040700037071CB503B44FF010004FF01001BAF130
:10408000000F06D0BCF1000FDCBF40F0080040F08C
:1040900008014FF000000FBCBDE810400BF1010B10
:1040A000BBF1010F08BF5FEA170722BF12F101023F
:1040B00011F101014FF0004143F1000300F0004015
:1040C00043EA00007047F9D35708D0E746EA0646AE
:1040D0004FEA164613F1400F1FDD13F1200FDFBF2B
:1040E00016430A46002120335B42BED0C3F12007AD
:1040F00046EA06464FEA164602FA07F746EA070678
:1041000022FA03F2C3F1200701FA07F742EA070295
:1041100021FA03F14FF00003A7E746EA020646EA58
:1041200006464FEA164646EA0106BCBF46EA064680
:10413000360C4FF000034FF000024FF0000194E7FF
:104140002DE9804C70B49A46934691E8380007C830
:1041500031EA400C48BF34EA430C03D5FFF7E6FDD3
:10416000FFF780FFF0BCBDE8008C2DE9804C70B4F7
:104170009A46934691E8380007C810F0804F08BF70
:1041800013F0804F03D100F005F8FFF76BFFF0BC90
:10419000BDE8008C20F07F4723F07F4C80EA0300CD
:1041A00000F0004007EB0C03A3F57C53A3F1FE03E2
:1041B00092F0000F00F0B38095F0000F00F07780D0
:1041C0002DE901494FEA114021EA00484FEA14461F
:1041D00024EA064700FB06FC08FB06F607FB08F886
:1041E00018EB06484CEB164C00FB07F718EB07489A
:1041F0004CEB17404FEA124B22EA0B4E4FEA1546A2
:1042000025EA06470BFB06FC0EFB06F607FB0EFE37
:104210001EEB064E4CEB164C0BFB07F71EEB074E46
:104220004CEB174B18EB0B0840F1000018EB0E0B92
:1042300058EB000840F100008F1A4FF000014FF0DA
:1042400000063CBFC943661B14BFB5EB040C00213C
:104250003CBFC943F61B4FEA174427EA04454FEA1F
:104260001C472CEA074C04FB076205FB07F70CFB15
:1042700005F616EB074642EB174204FB0CFC16EB67
:104280000C4642EB1C421BEB060658EB0202414176
:104290004EEA8E0E46EA9E0601D5BDE80189B619A2
:1042A000524141EB0101A3F10103BDE801894FEA4D
:1042B000144524EA05464FEA114721EA074C05FB5D
:1042C00007F406FB07F70CFB06F111EB074144EB83
:1042D000174405FB0CFC11EB0C4144EB1C444FEA6A
:1042E000124722EA074C05FB07F206FB07F70CFB17
:1042F00006F616EB074642EB174205FB0CFC16EBE5
:104300000C4642EB1C456A1854F1000148BF704747
:10431000B619524141EB0101A3F10103704795F039
:10432000000F37D04FEA114221EA02464FEA144704
:1043300024EA074C02FB07F106FB07F70CFB06F427
:1043400014EB074441EB174102FB0CFC14EB0C444B
:1043500041EB1C414FEA154725EA074C02FB07F5E4
:1043600006FB07F70CFB06F616EB074645EB174571
:1043700002FB0CFC16EB0C4645EB1C42121951F1EA
:10438000000148BF7047B619524141EB0101A3F14A
:10439000010370474FEA144524EA05464FEA1147E6
:1043A00021EA074C05FB07F106FB07F70CFB06F2B9
:1043B00012EB074241EB174105FB0CFC12EB0C42E0
:1043C00051EB1C414FF0000648BF7047921841EB7B
:1043D0000101A3F101037047490050EAC12018BF51
:1043E00004204A0D18BF40F0010040F2FF72B2EB0A
:1043F000515F08BF40F00200012808BF0520704748
:1044000030380A2801D201207047002070472DE97A
:10441000F04106460F4600F0C3F9041E0D4618BFD2
:104420000120284320F00040C0F17F6000F1E0400F
:10443000C00F0ED0301C18BF0120384320F00040C0
:10444000C0F17F6000F1E040C00F04BF0120FCF725
:104450006CF820462946BDE8F081000010B500291F
:104460000AD00878002807D005487844FCF78EFF6A
:10447000002801D0002010BD0248784410BD000083
:10448000320A00002A0A000010B500290AD0087874
:10449000002807D005487844FCF778FF002801D0B1
:1044A000002010BD0248784410BD0000220A000020
:1044B0001A0A000021F0004201F00043A2F160520C
:1044C000B2F5801F28BFD2F17F6C0BD95FEA001CC8
:1044D00043EAC20242EB507018BF704728BF20F079
:1044E00001007047B2F5801FBCBF184670474FEA05
:1044F000410C1CF5001F02D2084600F020BC70B52C
:1045000000F0FAF800000089FFF7F6BF4FF0004016
:10451000A0F58000704700004FEA41034FEA535373
:10452000A3F58063D3F11E03C8BFD3F1210C0CDDCA
:104530004FF0004242EAC12242EA505232FA03FCF2
:104540008CEAE17CACEBE1707047102BC4BF00201B
:10455000704703F5787CBCF1FF3F04D06FF0004258
:1045600082EA2100704770B500F0C6F849922480B5
:1045700000207047F2E710F0004248BF4042B0FA16
:1045800080F310FA03F10AD0C3F11D0303F5806331
:1045900002EB03524FEA415002EBD12170474FF03A
:1045A0000000704770B5DFF848C11CEA111E1EBF3D
:1045B0001CEA13159EEA0C0F95EA0C0F00F06F80B1
:1045C00081EA03044EEAD47EAE4421EA4C1123EA88
:1045D0004C1341F4801143F48013AEF17F7EA1FBB4
:1045E000024CA0FB0365361955EB0C05A1FB034CEF
:1045F0004CF10003A0FB021C16EB0C06654153F1C5
:104600000003094218BF46F0010613F4007F0BD1E6
:104610004FEA03314FEA053041EA155140EA16509E
:1046200034036FF003020AE04FEAC3214FEAC520CA
:1046300041EA555140EA5650F4026FF0020202EB93
:104640002E4201EB025585EACE710AD05FEA440C96
:1046500018BF24F0004450F1000041F1000120EAAD
:10466000D47040F2FE7C624500D270BDA84214BFF7
:104670004FF080444FF04044002E08BF0024BEF1AC
:10468000806FA8BFA1F1C041BDE8704080F2828078
:1046900001F1C04101F000414FF0000070470CEA09
:1046A00013159EEA0C0F18BF95EA0C0F06D081EA8D
:1046B000030E4FF000000EF0004170BD00F01CF83A
:1046C0008900013E00F007B800F009B84FEA430C3A
:1046D0005FEA5C5C08D081EA030100F05BB84FEA56
:1046E000410C5FEA5C5CF6D102494FF00000704774
:1046F0000000FF070000F87F0EF1020E2EF0030EFF
:104700005EF8046B364205D4012A43EB030515F528
:10471000001F12D8012841EB010C1CF5001F0CD81A
:104720000ED14FEAD17C0CEB4C0C0CF1020C15F5C0
:10473000001F08BF4CEBD37C04E04FF0080C01E0F5
:104740004FEAD37C0CEB4C0526FA05F606F007067B
:10475000B6F1040C06D20EEB860CBDE870404CF0AE
:10476000010C6047DFE80CF0090B02024FF000413A
:10477000A1F500214FF0000070BD19461046012838
:1047800051EB010418BFD4F5001484BF002001F0E0
:10479000004170BD0808A0F500114FEA31017047D3
:1047A0002DE9F04101F5801CBCF5001FC0F2C3806B
:1047B0004FEA115C21EA0C5141F480110CF1FD0C1F
:1047C0005FEA5C0C0CF5C07C01D3400049418902D2
:1047D00041EA905187023BA48E0EA45D0A0C04FBB3
:1047E00004F602FB06F6C6F14046A4FB0662F60D8F
:1047F00046EA422606FB06F4A4FB01235242C3F11B
:10480000404338BF5B1EA6FB02420024E6FB0324A4
:10481000D20B42EA4446A6FB0623A1FB02E2A3FB1D
:1048200007E4A4184FF0000252F10002E3FB01423A
:104830006442C2F1404E38BFAEF1010EA6FB042324
:104840004FF00002E6FB0E32A2FB0346B6194FF012
:10485000000454F10004E2FB0264A1FB06E6A4FBA1
:1048600007E816EB08064FF0000858F10008E4FBD3
:1048700001687642C8F1405838BFA8F10108A2FB90
:1048800006E4A3FB08E52D194FF0000454F10004E1
:10489000E2FB0854A1FB05E6A7FB04E818EB0608B9
:1048A0004FF0000656F10006E1FB048618F12005E2
:1048B00056F10006A80940EA8660B109A8F11B0874
:1048C00008F03F08B8F10A0F1CD901EB0C51BDE804
:1048D000F08100BFFCF5EEE8E2DDD8D3CFCBC7C353
:1048E000C0BDB9B6B4B1AEACA9A7A5A3A19F9D9B0D
:1048F0009A9896959392908F8D8C8B8988878685D0
:1049000084838281A0FB006800FB01F208EB42086F
:10491000B8EB872807D5341858EB0104D5D5401CCF
:1049200051F10001D1E7341A78EB0104CDD4401ED7
:1049300071F10001C9E75FEA4C0C5FEA9C5C0DD1A4
:1049400005D301F000414FF00000BDE8F081BDE863
:10495000F04170B5FFF7D0FE6DDBFFBEBDE8F04162
:1049600001494FF0000070470000F87F43004FEA14
:10497000D30C4FEA3C0C43401FBF40070CF1605181
:1049800013F0FE4F70471CF0006F03D10CF0004194
:10499000002070470CF0004343EA507040EACC001E
:1049A00010B500F086F900BF000000924FEA000148
:1049B000FFF7F0BE4FF00041A1F500214FF00000DD
:1049C000704700004FF47F0C1CEAD0121EBF1CEA97
:1049D000D11392EA0C0F93EA0C0F00F0858090EA55
:1049E000010F48BF42F4807240F4000C41F4000013
:1049F0002CF07F4120F07F4000B5A2EB0302814202
:104A00000FF2081CACEB504E9EF800E0C0F1000025
:104A10004FEA4E0E00FB0EFC38BF49004FEA2C1C3B
:104A20000CFB0EF34FEACE1E0EEB635E4FEA112C29
:104A30000EFB0CFC4FEAC1214FEA1C5300FB031193
:104A400002F5FA024FEA112C0EFB0CFC4FEA013181
:104A50004FEADC4C00FB0C1142EB2242C14228BF62
:104A600009184CEB03335DF804EB10EB410143EB09
:104A7000C250B2F57C0F38BF704729D512F0F00F45
:104A80001CBF00F1C04000F00040704700818283ED
:104A90008485868788898B8C8D8E8F91929395964D
:104AA00097999A9C9D9FA0A2A3A5A7A8AAACAEB0D7
:104AB000B2B3B5B7B9BCBEC0C2C5C7C9CCCED1D4DC
:104AC000D7D9DCDFE2E6E9ECF0F3F7FAFE0000000C
:104AD0004FEA400C0CF1807CBCF17E4F28BF704740
:104AE000B0F1C04000F02BB90CEAD11390EA010FED
:104AF00048BF42F48072624538BF634507D213F461
:104B00007F0F16D080EA010000F00040704710B51A
:104B100000F0CFF8097EFC3E00F005B880EA010005
:104B200000F00040704780EA010000F0004000F013
:104B300006B912F47F0F04BF0248704780EA0100F3
:104B400000F0FDB80000C07FC10DD1F19E0206DB70
:104B50004FEA002343F0004323FA02F0704700427B
:104B600007D54FEA4001B1F1FE4F02D24FF00000ED
:104B7000704710B500F09DF84992248000207047DE
:104B80006FEA200070470000B0FA80F310FA03F2D9
:104B9000C3F19D030AD0D90501EB1220530638BF9B
:104BA000704700F1010008BF20F0010070470000CD
:104BB0004FF47F0C1CEAD0121EBF1CEAD11392EAFC
:104BC0000C0F93EA0C0F00F0478090EA010F48BFEA
:104BD00042F480724FF0004C4CEA00204CEA012174
:104BE00002EB0302A0FB0113A2F50002002918BF8B
:104BF00043F001035B0028BF4FEA330342EB22423C
:104C00005FEA132C4CEBC2502EBFBCEB436FB2F5E6
:104C10007C0F70474FEA036CBCF1004F08BF20F0D7
:104C20000100B2F57C0F38BF70470BD582F0FF0250
:104C300012F5803FC8BF704700F1C040D8BF00F0F8
:104C40000040704700F5000C5FEA4C0C48BF70470D
:104C5000B0F1C04000F073B80CEAD11390EA010F34
:104C600048BF42F48072624538BF634504D280EA8F
:104C7000010000F00040704710B500F01AF800BFC6
:104C80008900013E00F007B800F009B85FEA410C66
:104C90005FEA1C6C08D080EA010000F050B85FEABF
:104CA000400C5FEA1C6CF6D14FF00040A0F580008C
:104CB00070470EF1020E2EF0030E5EF8044B2442F4
:104CC00004D44FEA4102B2F17F4F11D84FEA4003BA
:104CD000B3F17F4F0CD80ED14FEAD07C0CEB4C0CCB
:104CE0000CF1020CB2F17F4F08BF4CEBD17C04E019
:104CF0004FF0080C01E04FEAD17C0CEB4C0324FA96
:104D000003F404F00704B4F1040C06D20EEB840C97
:104D1000BDE810404CF0010C6047DFE80CF00708DC
:104D200002024FF00040A0F5800010BD084642008E
:104D300018BFD2F1807288BF00F0004010BDFF2183
:104D400041EAD050C0057047FBF79CBDFCF762B844
:104D50000400000800000000000000020001000044
:104D6000100000000000000000000000303132336D
:104D7000343536373839414243444546403058008F
:104D800030313233343536373839616263646566C1
:104D9000403078003031323334353637383961625B
:104DA00063646566787000303132333435363738B5
:104DB000394142434445465850000000024000003B
:104DC000000000A00000000005400000000000C836
:104DD000000000000C4000000000409C00000000AB
:104DE000194000000020BCBE00000000344000005C
:104DF000BFC91B8E00000004B5400000504BCFD04F
:104E00006607E2CF010000006C4100003E8251AA1B
:104E1000DFEEA73401000000D9420000DCB5A0E2BB
:104E20003A301F97FFFFFFFFB4450000FD25A0C8E3
:104E3000E9A3C14FFFFFFFFFFF3F0000000000801C
:104E400000000000FF3F00000000008000000000A4
:104E5000000000000000000001020304060708092A
:104E6000000000000102030401020203040506071A
:104E700008090A0B0C0D0E0F10100000C84F000897
:104E8000000000201800000028010008E04F000882
:104E90001800002078070000440100081C000000F2
:104EA00043000000F8FFFFFF0C0000000E000000B0
:104EB0000F0000002E000000100100004300000061
:104EC000F8FFFFFF0040404040404040404041412B
:104ED00041414140404040404040404040404040CF
:104EE0004040404040050202020202020202020269
:104EF0000202020202202020202020202020200266
:104F000002020202020290909090909010101010F5
:104F10001010101010101010101010101010101091
:104F20000202020202028888888888880808080825
:104F300008080808080808080808080808080808F1
:104F40000202020240000000000000000000000019
:104F50000000000000000000000000000000000051
:104F60000000000000000000000000000000000041
:104F70000000000000000000000000000000000031
:104F80000000000000000000000000000000000021
:104F90000000000000000000000000000000000011
:104FA0000000000000000000000000000000000001
:104FB00000000000000000000000000000000000F1
:104FC00000000000000000000100000010000000D0
:104FD000000048420000803F00127A0000000000FC
:04000005080000ED02
:00000001FF
